:020000040800F2
:100000000050002019270008452600084B2600084C
:1000100051260008572600085D2600080000000051
:10002000000000000000000000000000632600083F
:100030006F260008000000007B26000887260008C5
:100040006127000861270008612700086127000870
:100050006127000861270008612700086127000860
:100060006127000861270008612700086127000850
:10007000612700086127000895260008A9260008C6
:10008000BD260008D1260008612700086127000866
:100090006127000861270008612700086127000820
:1000A0006127000861270008612700086127000810
:1000B0006127000861270008612700086127000800
:1000C00061270008612700086127000861270008F0
:1000D00061270008E5260008F926000861270008C6
:1000E0006127000861270008612700080000000060
:1000F0000000000000000000000000000000000000
:0C01000000000000000000005FF808F1A3
:10010C0010B5054C237833B9044B13B10448AFF345
:10011C0000800123237010BD180000200000000097
:10012C00605D000808B5034B1BB103490348AFF3EE
:10013C00008008BD000000001C000020605D00086D
:10014C0080B483B000AF0023FB802DE0FB88BB8024
:10015C0000237B8000237B701BE0BB88DAB27B889A
:10016C00DBB25340DBB203F001033B707B885B08CE
:10017C007B803B78002B06D07B8883F4BF4383F0D5
:10018C007E03DB437B80BB885B08BB807B780133C1
:10019C007B707B78072BE0D9FB8808497A8821F89B
:1001AC001320FB880133FB80FB88FF2BCED900BFCB
:1001BC0000BF0C37BD4680BC704700BF3400002028
:1001CC0080B485B000AF786039604FF6FF73FB8167
:1001DC0000237B7317E07B7B7A6813441B783B739B
:1001EC003B7B9AB2FB8953409BB2DBB27B81FB8990
:1001FC001B0A9AB27B890A4931F813305340FB81B0
:10020C007B7B01337B737B7B3A689A42E3DCFB8913
:10021C00DB439BB218461437BD4680BC704700BF09
:10022C003400002080B485B000AF786039604FF6A0
:10023C00FF73FB8100237B7317E07B7B7A6813448D
:10024C001B783B733B7B9AB2FB8953409BB2DBB26E
:10025C007B81FB891B0A9AB27B89094931F81330DF
:10026C005340FB817B7B01337B737B7B3A689A42E7
:10027C00E3DCFB8918461437BD4680BC704700BFD1
:10028C003400002080B582B000AF78600B467B80D4
:10029C007B681B682D4A934235D17B88312B01D961
:1002AC0032237B802A4B1B781A46322302FB03F342
:1002BC00284A13447A882849184605F035FD244B02
:1002CC001B781A467B88D9B2244B9954204B1B7847
:1002DC000133DAB21E4B1A701D4B1B78042B02D95A
:1002EC001B4B04221A701E4B01221A7032221A491F
:1002FC001C4804F04DFF1C4B1B681A681A4B1B68FA
:10030C0022F004021A607B681B68184A934218D1C9
:10031C007B88DAB2164B1A70164B01221A70002227
:10032C001021154803F08AF81E221449144804F0D1
:10033C002FFF144B1B681A68124B1B6822F0040227
:10034C001A6000BF0837BD4680BD00BF00380140B1
:10035C006D0E00206C0D0020380D0020680E002062
:10036C006E0E0020A01F00206C20002000440040D6
:10037C00801E00207E1E002000080140841E0020EC
:10038C00E41F0020B020002080B582B000AF002315
:10039C007B6010E07B68322202FB03F3104A1A44A4
:1003AC0010497B680B441B781946104600F01EF868
:1003BC007B6801337B600C4B1B781A467B6893423D
:1003CC00E8DB094B1B781A460021064805F0BAFCFD
:1003DC00054B00221A7000BF0837BD4680BD00BF18
:1003EC006C0D0020680E00206D0E002080B584B0CE
:1003FC0000AF78600B46FB70FB78013B7A681344C6
:10040C001B78FB81FB891B02FB81FB78023B7A6822
:10041C0013441B789AB2FB891343FB81FB78023B94
:10042C0019467868FFF7CCFE0346BB81FA89BB8975
:10043C009A421BD1FB78022B18D90E4B1B781A460B
:10044C00322302FB03F30C4A1344FA7879681846FA
:10045C0005F06AFC074B1B781946084AFB78535485
:10046C00044B1B780133DAB2024B1A7000BF103701
:10047C00BD4680BD000D00203C030020040D002073
:10048C002DE9F04389B002AF02F0BEF90246954B5C
:10049C001B68D21A944B1B689A42C0F08C80934B09
:1004AC001B78002B00F087806B461E46904B9B7888
:1004BC0001338F4AD15C0B46013BBB60CBB20022AF
:1004CC00984691464FF000024FF000034FEAC903E3
:1004DC0043EA58734FEAC802CBB200221C461546B9
:1004EC004FF000024FF00003EB0043EA5473E200BC
:1004FC000B460733DB08DB00ADEB030D02AB00331F
:10050C007B607C4803F0F6F87A4802F0AFFF784B3A
:10051C00DB789BB25B0099B2754B9B780133744AC4
:10052C00D35C9BB24FF4967200927A68714803F0D8
:10053C000FFA0346002B3AD10023BB7308E0BA7BB9
:10054C00BB7B6B49895C6C4AD154BB7B0133BB735D
:10055C00BB7B012BF3D9664B9B780133644AD35C8C
:10056C000133DAB2644B9A70614BDA78624BDA7011
:10057C000023FB7309E0FA7BFB7B04337968895C0D
:10058C005D4AD154FB7B0133FB73594B9B78013390
:10059C00574AD35C1A46564B9B5CFA7B9A42EAD379
:1005AC00554B9B780333DBB2184601F01FFB4F4BC6
:1005BC0000221A70B54602F027F902464F4B1B6811
:1005CC00D31AC82B0AD94E4B1B78002B06D000F03F
:1005DC0059FA02F019F90346484A136002F014F96B
:1005EC000246484B1B68D31AB3F5FA7F06D900F0C4
:1005FC00DBFE02F009F90346424A1360424B1B78BA
:10060C00002B3AD000233B6131E002F0FDF80246AA
:10061C003E493B6951F82330D31A3D493A6931F8C8
:10062C001220934220D3314B1B78002B1CD1394B19
:10063C001B78002B18D1384B1B78002B14D13B693D
:10064C00322202FB03F3354A1A4435493B690B4409
:10065C001B781946104600F0C7F802F0D5F8024690
:10066C002A493B6941F823203B6901333B61264B06
:10067C001B781A463B699342C7DB2A4B1B78002B2D
:10068C0022D002F0C1F80246274B1B68D31A0A2B62
:10069C001AD9244B00221A70244B1B789BB21A4691
:1006AC002349244804F008FD0346FB70FB78022B19
:1006BC0002D0FB78012B07D11A4B01221A7002F0E1
:1006CC00A3F80346184A13601B4B1B78002B63D00E
:1006DC001A4B1B7819461A4800F086F800237B61E8
:1006EC0047E000BF700E0020780E0020740E002032
:1006FC007C0E00204C1F00209C0E0020741E00203D
:10070C005C1E0020781E00209418002098190020F0
:10071C00CC1800207D1E00207E1E0020D00E002054
:10072C0098180020360300203803002030030020E6
:10073C0034020020A01F0020000D0020040D00201A
:10074C003C0300207B69322202FB03F31E4A9818FB
:10075C007B690133322202FB03F31B4A99187B6934
:10076C0001331A4AD35C1A4605F0DEFA7B69013371
:10077C007B61174B1B781A467B699342E2DB144B67
:10078C001B781A461349114805F0CEFA104B1B780A
:10079C00013BDAB20E4B1A700F4B1B78002B04D0B6
:1007AC00FFF7F2FD0C4B00221A700C4B1B78002B40
:1007BC0005D00B4B1B7819460A4800F093FF00BF7D
:1007CC001C37BD46BDE8F0833C030020040D00201F
:1007DC00000D0020050D00206E0E00207E1E002056
:1007EC00801E0020841E002080B582B000AF78608F
:1007FC000B46FB707B6801331B780C2B58D801A27D
:10080C0052F823F0450800084D0800085908000864
:10081C006108000869080008710800087D080008D4
:10082C0089080008910800089D080008A90800081C
:10083C00BD080008B1080008786800F0DDF938E060
:10084C00FB781946786800F0EDFD32E0786800F02E
:10085C0067F92EE0786800F069FB2AE0786800F010
:10086C0033FC26E0FB781946786800F0D1FA20E0DA
:10087C00FB781946786800F09DFB1AE0786800F068
:10088C0081F816E0FB781946786800F025FE10E038
:10089C00FB781946786800F0F9FF0AE0786800F0F8
:1008AC00ABF906E0FB781946786800F007F800E031
:1008BC0000BF00BF0837BD4680BD00BF80B586B005
:1008CC0000AF78600B46FB707B6803331B78C3F179
:1008DC000103DBB2184600F0B3F80346FB720023A9
:1008EC00FB7500233B6120E00123BB72FB7A3A6964
:1008FC00053211467A680A4412781341DAB2BB7A8F
:10090C001340DBB203F00103BB7297F90A30DB43EF
:10091C005AB297F9173013435BB2FB75FB7D03F0AA
:10092C000103FB753B6901333B617B6804331B7826
:10093C001A463B699342D7DB0023FB6011E07B68CE
:10094C0004331B785A1DFB6813441A467B68134406
:10095C001B78FA7D1146184600F0D4F9FB68013378
:10096C00FB607B6802331B781A467B6804331B7868
:10097C00D31A013BFA689A42E1DB00BF00BF18377B
:10098C00BD4680BD80B584B002AF78607B68033310
:10099C001B78012B22D1214B1B78002B1ED1204B15
:1009AC0000221A70322200211E4805F0CBF93222A7
:1009BC0000211D4805F0C6F91C4B00221A704FF49B
:1009CC007A7200211A4805F0BDF93222002119482B
:1009DC0005F0B8F9114B01221A701BE07B68033348
:1009EC001B78002B16D10D4B00221A70124BFF22D4
:1009FC001A70114BFF225A70104802F07BFE0F4800
:100A0C0002F034FD1E23009302230B4A40210B48B5
:100A1C0002F0A0FE00BF0837BD4680BD7C1E002042
:100A2C009418002098180020301900205C1E00201B
:100A3C00741A00206419002004000020F81E002005
:100A4C0080B586B002AF0346FB714FF6FF73BB81D6
:100A5C000B4802F04FFE0A4802F008FD07F10C02A9
:100A6C00C823009302234021054802F071FFFB7953
:100A7C0010333B4413F8043C18461037BD4680BD78
:100A8C00F81E002080B582B000AF0120FFF7D8FF20
:100A9C000346FB70FB78FF2B32D01D4B1B78FA788A
:100AAC009A4229D000237B600DE07B68322202FB46
:100ABC0003F3184A1344FA781146184600F0CCF8A0
:100ACC007B6801337B60144B1B781A467B6893421E
:100ADC00EBDB124B01221A70104B0B225A700F4B8E
:100AEC0001229A700020FFF7ABFF03461A460B4B0E
:100AFC00DA70042001F07AF8054AFB78137002E0F2
:100B0C00034B00221A7000BF0837BD4680BD00BFE2
:100B1C0002000020741A00205C1E00209C0E002095
:100B2C0080B586B002AF78600020FFF789FF0346DE
:100B3C001A462E4B1A702D4BFF225A700023FB6065
:100B4C0036E0FB6803331A467B6813441B781A465D
:100B5C00012393405BB2DB435AB2244B1B785BB24C
:100B6C0013405AB2FB68043319467B680B441B785C
:100B7C001946FB68033318467B6803441B7801FA5B
:100B8C0003F35BB213435BB2DAB2184B1A7018481A
:100B9C0002F0B0FD164802F069FC1E2300930223FC
:100BAC00124A4021124802F0D5FDFB680233FB606B
:100BBC007B6802331B781A46FB689342C1DB0D4BF2
:100BCC0001221A700B4B02225A700A4B01229A70A6
:100BDC000020FFF735FF03461A46064BDA70042057
:100BEC0001F004F800BF1037BD4680BD04000020A2
:100BFC00F81E00209C0E002080B584B000AF7860F9
:100C0C000020FFF71DFF03461A46114B5A700023B4
:100C1C00FB600BE0FB687A68134419780D4AFB689B
:100C2C0013440A461A70FB680133FB60FB68012B06
:100C3C00F0DD084B01229A70054B5A78054BDA709F
:100C4C00042000F0D3FF00BF1037BD4680BD00BFAD
:100C5C00000000209C0E002080B586B000AF7860AC
:100C6C000B46FB700023FB7500233B613BE001232B
:100C7C00FB72FB783A69023211467A680A441278A0
:100C8C0013415AB297F90B3013405BB2FB72FB7AEB
:100C9C0003F00103002B23D10023FB6015E07B68DC
:100CAC0001331B789A1CFB6813441A467B68134467
:100CBC001B781A46012393405AB297F91730134305
:100CCC005BB2FB75FB680133FB607B681B781A46D3
:100CDC007B6801331B78D31A013BFA689A42DEDB3E
:100CEC003B6901333B617B6801331B781A463B69D6
:100CFC009342BCDBFB7D184600F04AF800BF183766
:100D0C00BD4680BD80B584B002AF03460A46FB7178
:100D1C001346BB710020FFF793FE03461A461A4B8D
:100D2C001A70FB79012202FA03F35BB2DB435AB26D
:100D3C00154B1B785BB213405AB2BB7903F001031D
:100D4C00002B0CBF01230023DBB21946FB7901FAFF
:100D5C0003F35BB213435BB2DAB20B4B1A700A4B60
:100D6C00FF225A70094802F0C5FC084802F07EFBCD
:100D7C00142300930223044A4021044802F0EAFCA5
:100D8C0000BF0837BD4680BD04000020F81E0020BF
:100D9C0080B586B002AF0346FB710020FFF750FE12
:100DAC0003461A46184B1A700023FB6017E0FA79B9
:100DBC00FB6842FA03F303F00103002B0CD0124B37
:100DCC001B785AB20121FB6801FA03F35BB2534062
:100DDC005BB2DAB20C4B1A70FB680133FB60FB6838
:100DEC00072BE4DD094802F085FC084802F03EFBC5
:100DFC00142300930223044A4021044802F0AAFC65
:100E0C0000BF1037BD4680BD04000020F81E002036
:100E1C002DE9F04389B002AF78600B46FB706B464E
:100E2C001E467B68043319780B46013B3B61CBB201
:100E3C000022984691464FF000024FF000034FEA13
:100E4C00C90343EA58734FEAC802CBB200221C46CE
:100E5C0015464FF000024FF00003EB0043EA5473C9
:100E6C00E2000B460733DB08DB00ADEB030D02ABF6
:100E7C000033FB602B4802F03DFC2A4802F0F6FAE6
:100E8C007B6803331B789BB25B0099B27B6804339D
:100E9C001B789BB2C8220092FA68224802F058FDD7
:100EAC000346002B37D10023BB7509E0BB7D7A6864
:100EBC001A44BB7D11781C4AD154BB7D0133BB75E0
:100ECC007B6804331B78BA7D9A42EFD37B6804337A
:100EDC001B780133DAB2144B9A707B68DA78124BB8
:100EEC00DA700023FB7509E0FA7DFB7D0433F968A9
:100EFC00895C0D4AD154FB7D0133FB757B6804334F
:100F0C001B78FA7D9A42EFD3074B9B780333DBB205
:100F1C00184600F06BFEB54600BF1C37BD46BDE859
:100F2C00F08300BF4C1F00209C0E002080B584B0C5
:100F3C0000AF78601D4B01221A701C4B03225A70B3
:100F4C001A4B00229A700123FB7320E0184802F020
:100F5C00D1FB174802F08AFAFB7B9BB25B0099B27B
:100F6C0002230222124802F053FF0346002B0BD13E
:100F7C000E4B9B780133DAB20C4B9A700B4B9B786F
:100F8C0002330A49FA7BCA54FB7B0133FB7397F992
:100F9C000F30002BDADA054B9B780333DBB21846A3
:100FAC0000F024FE00BF1037BD4680BD9C0E002013
:100FBC004C1F00202DE9F04389B002AF78600B463E
:100FCC00FB706B461E46FB781A467968394804F06C
:100FDC00ABFE7B6802331B78D91E4B1E3B610A4665
:100FEC000023904699464FF000024FF000034FEA61
:100FFC00C90343EA58734FEAC8020A460023144651
:10100C001D464FF000024FF00003EB0043EA54730F
:10101C00E2000B460733DB08DB00ADEB030D02AB44
:10102C000033FB6000237B610DE07B6904331A46BF
:10103C007B6813441978FA687B6913440A461A7062
:10104C007B6901337B617B6802331B78033B7A69D4
:10105C009A42EADB184802F04DFB174802F006FAF8
:10106C007B6803331B789BB25B0099B27B680233BD
:10107C001B789BB2033B9BB24FF496720092FA68BA
:10108C000D4802F067FB0346002B0DD101F0BCFBB1
:10109C0003460A4A13607B680A331B781A46084BCE
:1010AC001A60084B01221A70B54600BF1C37BD46AA
:1010BC00BDE8F0837C0E00204C1F0020700E002039
:1010CC00780E0020740E00202DE9F04389B002AF99
:1010DC0078606B461E467B6802331B78591E4B1E8C
:1010EC003B610A460023904699464FF000024FF0B0
:1010FC0000034FEAC90343EA58734FEAC8020A4691
:10110C00002314461D464FF000024FF00003EB0085
:10111C0043EA5473E2000B460733DB08DB00ADEB0C
:10112C00030D02AB0033FB6000237B610DE07B6998
:10113C0004331A467B6813441978FA687B691344A4
:10114C000A461A707B6901337B617B6802331B781A
:10115C00013B7A699A42EADB0E4802F0CBFA0D4861
:10116C0002F084F97B6803331B789BB25B0099B265
:10117C007B6802331B789BB2013B9BB278220092B6
:10118C00FA68044802F0E6FAB54600BF1C37BD46C3
:10119C00BDE8F0834C1F002080B588B002AF034639
:1011AC00FB717E4B00221A707D4802F0A3FA7D4A37
:1011BC0007F110031268114619800233120C1A70D1
:1011CC000023BB810023FB82FB791B01DBB23D3B7F
:1011DC00DBB27B74FB79032B6CD8FB791B01DBB284
:1011EC003D3BDBB27B746E4802F040F907F1100214
:1011FC00C823009303239021694802F0ABFA0346FD
:10120C00002B04D0654B01221A700023C2E0644805
:10121C0002F070FA624802F029F96423009301236A
:10122C00002290215E4802F095FA0346002B04D070
:10123C005A4B01221A700023ACE0594802F05AFABA
:10124C000A2001F0EBFA00237B752AE0544802F0E7
:10125C000DF907F10C02C82300930223902150488A
:10126C0002F076FB0346002B04D04C4B01221A7083
:10127C0000238FE04A4802F03DFA052001F0CEFA37
:10128C00FB8A3A7B120211B27A7B12B20A4312B277
:10129C0092B21344DA0F13445B10FB827B7D013353
:1012AC007B757B7D092BD1D9FB8A022B71D800234E
:1012BC00FB826EE0FB79032B6BD9FB79072B68D88B
:1012CC00FB79043BDBB21B01DBB23D3BDBB27B7435
:1012DC00334802F0CBF807F11002C8230093032324
:1012EC0092212F4802F036FA0346002B04D02B4BE8
:1012FC0001221A7000234DE0294802F0FBF928481E
:10130C0002F0B4F8642300930123002292212448B4
:10131C0002F020FA0346002B04D0204B01221A7055
:10132C00002337E01E4802F0E5F90A2001F076FAB6
:10133C0000233B752AE01A4802F098F807F10C02DA
:10134C00C823009302239221154802F001FB0346A7
:10135C00002B04D0114B01221A7000231AE0104804
:10136C0002F084F8052001F059FAFB8A3A7B12024C
:10137C0011B27A7B12B20A4312B292B21344DA0F50
:10138C0013445B10FB823B7D01333B753B7D092B8A
:10139C00D1D9FB8A18461837BD4680BD601A00208B
:1013AC00F81E0020785D000880B584B000AF0023E3
:1013BC00FB81184A3B1D92E8030083E80300164B9F
:1013CC001B7810333B4413F80C3C1846FFF7E4FE33
:1013DC000346FB81114B1B7883F00103DBB2002B1E
:1013EC0006D00D4B1B7819460D4AFB8922F811309B
:1013FC00094B1B780133DAB2074B1A70064B1B787A
:10140C00072B02D9044B00221A7000BF1037BD46BF
:10141C0080BD00BF7C5D00087F1E0020601A00208C
:10142C00641A002080B586B000AF78600B46FB7064
:10143C0000237B6100233B611EE0254A3B6932F8A7
:10144C001330BB817B6903333A69D1B2214AD15441
:10145C00BB891B0A9AB27B690433D1B21D4AD154A1
:10146C007B690533BA89D1B21A4AD1547B690333EB
:10147C007B613B6901333B617B6802331B781A4605
:10148C003B699342D9DB0023FB7309E0FB7B7A6851
:10149C001A44FB7B11780F4AD154FB7B0133FB734D
:1014AC00FB7B012BF2D97B6802331B781A46520066
:1014BC001344DAB2074B9A70064B9B780333DBB2BA
:1014CC00184600F093FB00BF1837BD4680BD00BF27
:1014DC00641A00209C0E00202DE9F04F8DB000AF57
:1014EC00F8600B46FB726B461E46FB6802331B789A
:1014FC00591C4B1E3B620A4600233A607B604FF03E
:10150C0000024FF000037868C300386843EA507358
:10151C003868C2000A46002392469B464FF00002F0
:10152C004FF000034FEACB0343EA5A734FEACA0267
:10153C000B460733DB08DB00ADEB030D6B460033CA
:10154C00FB61002387F82730FB7A043BFA681344CD
:10155C0019780B46013BBB61CBB2002298469146F1
:10156C004FF000024FF000034FEAC90343EA5873EF
:10157C004FEAC802CBB200221C4615464FF00002BF
:10158C004FF00003EB0043EA5473E2000B460733C1
:10159C00DB08DB00ADEB030D6B4600337B610023F6
:1015AC00BB6219E0BB6A022B13DDFB6802331B78AC
:1015BC000133BA6A9A420CDCBB6AFA681A4497F88F
:1015CC0027301178FA69D15497F82730013387F80E
:1015DC002730BB6A0133BB62FB7ABA6A9A42E1DB01
:1015EC0097F827301946F869FEF71CFE03467B82F4
:1015FC000023FB6217E07A8AFB6ADB004FF47F4121
:10160C0041FA03F31A40FB6AC3F10103DB0042FA0F
:10161C0003F197F82720FB6A1344C9B2FA69D15435
:10162C00FB6A0133FB62FB6A012BE4DD97F8273080
:10163C00FA69D35C3B8297F827305A1C97F827300D
:10164C00F969895CFA69D15497F8273001333A8AE1
:10165C00D1B2FA69D154012210211C4801F0EEFEDE
:10166C0097F827309BB202339AB24FF49673F9690C
:10167C00174803F08EFC00221021144801F0DEFE06
:10168C001E221449124803F083FD134B1B681A6881
:10169C00114B1B6822F004021A60104B01221A70C5
:1016AC00FB7A043BFA6813441B78023BDAB20C4B0E
:1016BC009A70FB7A033BFA6813441A78084BDA7079
:1016CC00B54600BF3437BD46BDE8F08F0008014079
:1016DC00E41F0020841E0020B02000207D1E00206E
:1016EC009C0E002080B586B000AF78600B46FB7076
:1016FC00214B00221A70214B00221A70FB781946DC
:10170C007868FEF78FFD0346FB81FB89002B2ED1F9
:10171C001B4B01221A701A4B08225A7001237B6151
:10172C000AE07B697A681A447B6903331178144A9E
:10173C00D1547B6901337B61114B9B781A467B69D1
:10174C009342EEDB0E4B9B780333DBB2184600F072
:10175C004DFA00233B6107E0094A3B691344002220
:10176C001A703B6901333B613B691D2BF4DD00BFF3
:10177C001837BD4680BD00BF7D1E00207E1E002098
:10178C009C0E002090B585B000AFF860B960114692
:10179C001A460B46FB711346BB7132220021F868C6
:1017AC0004F0D0FAFB791A46B968F86804F0BCFA70
:1017BC00FB79033BBA681A44BB791178174AD154A8
:1017CC00BB791749FA79CA54FB79023BBA681344BE
:1017DC001B781B021AB2FB79013BB9680B441B78CE
:1017EC001BB213431AB2BB7991B20E4A22F81310F2
:1017FC00BC7901F009F803460B4A42F8243097F8FB
:10180C002030002B05D0094B1B780133DAB2074B83
:10181C001A7000BF1437BD4690BD00BF30190020B0
:10182C0098180020CC18002098190020941800203B
:10183C0080B584B000AFF860B96011461A460B460B
:10184C00FB711346BB7132220021F86804F07AFA5E
:10185C00FB791A46B968F86804F066FAFB79BA683D
:10186C001A44BB791178074AD1543B7E002B05D022
:10187C00054B1B780133DAB2034B1A7000BF1037DB
:10188C00BD4680BD641900205C1E002090B595B04B
:10189C0002AF78600B46FB700023FB6007F110036E
:1018AC0000221A605A609A60DA601A615A611A83CF
:1018BC007B681B783B737B68DB787B73FB781A4601
:1018CC007968A94804F030FA7B6803331B780B2B3A
:1018DC0040F0C0807B6802331B78023BDBB2BB73E9
:1018EC0000237B640DE07B6C04337A681A447B6CB8
:1018FC000333127848333B4403F83C2C7B6C0133A4
:10190C007B64BB7B1A467B6C9342ECDB7B680233BB
:10191C001B7802337A681A44BB7B03331278483342
:10192C003B4403F83C2CBB7B043387F82B308F4BA8
:10193C001B78002B0DD197F82B30013BDAB207F155
:10194C000C03991C0123009300238948FFF770FFB7
:10195C005EE000233B6455E0854A3B6C322101FB81
:10196C0003F313441B78013381493A6C322000FB9A
:10197C0002F20A4413441B7887F82A3097F82B306C
:10198C00013B48333B4413F83C3C97F82A209A42DD
:10199C001AD1764B1B781A463B6C934214D03B6C95
:1019AC00322202FB03F3724A981897F82B30013B52
:1019BC00DAB23B6CDCB207F10C03991C00230093E8
:1019CC002346FFF735FF23E0684B1B781A463B6C28
:1019DC00934214DB3B6C322202FB03F3644A9818EB
:1019EC0097F82B30013BDAB23B6CDCB207F10C03FD
:1019FC00991C012300932346FFF71AFF08E03B6C68
:101A0C0001333B64594B1B781A463B6C9342A3DD64
:101A1C000023FB630BE0FB6B7A6813441978554A7F
:101A2C00FB6B13440A461A70FB6B0133FB63FB6BB5
:101A3C00012BF0DD4F4B01229A7097F82B30013BB4
:101A4C0048333B4413F83C2C4A4BDA70042000F02A
:101A5C00CDF8C2E07B6802331B78043BDBB2BB736E
:101A6C000023BB630DE0BB6B04337A681A44BB6B79
:101A7C000333127848333B4403F83C2CBB6B0133E3
:101A8C00BB63BB7B1A46BB6B9342ECDB00237B63D3
:101A9C0015E07B6802331B781A467B6B13441A469D
:101AAC007B681A44BB7B19467B6B0B44033312785F
:101ABC0048333B4403F83C2C7B6B01337B637B6BDF
:101ACC00022BE6DDBB7B063387F82B302A4B1B78C9
:101ADC00002B0AD197F82B2007F10C01012300935E
:101AEC0000232648FFF74EFE55E000233B634CE0F5
:101AFC0097F82B30033B48333B4413F83C2C2049DC
:101B0C003B6B0B441B789A4216D11B4B1B781A4625
:101B1C003B6B934210D03B6B322202FB03F3174A10
:101B2C0098183B6BDBB297F82B2007F10C010024C3
:101B3C000094FFF727FE2EE00F4B1B781A463B6BE9
:101B4C0093421FDB3B6B322202FB03F30B4A9818C8
:101B5C003B6BDBB297F82B2007F10C0101240094AE
:101B6C00FFF710FE17E000BF601E00205C1E002077
:101B7C00741A00209C0E002094180020D00E002017
:101B8C00301900203B6B01333B63164B1B781A4614
:101B9C003B6B9342ACDD0023FB620BE0FB6A7A6883
:101BAC0013441978104AFB6A13440A461A70FB6AEC
:101BBC000133FB62FB6A012BF0DD0B4B01229A70A7
:101BCC0097F82B30033B48333B4413F83C2C064B23
:101BDC00DA70042000F00AF800BF00BF4C37BD4695
:101BEC0090BD00BF941800209C0E002080B584B0DE
:101BFC0000AF0346FB71FB7919461148FEF7E0FA7A
:101C0C000346FB81FB79FA89D1B20D4AD154FB8989
:101C1C001B0A9AB2FB790133D1B2094AD154FB7930
:101C2C000233DBB21946064800F00CF832220021D0
:101C3C00034804F087F800BF1037BD4680BD00BFD5
:101C4C009C0E002080B584B000AF78600B46FB7012
:101C5C002A4B1B7819462A4AFB785354274B1B787E
:101C6C001A46322302FB03F3264A1344FA787968A6
:101C7C00184604F059F8214B1B780133DAB21F4B8C
:101C8C001A701E4B1B78042B02D91C4B04221A70A1
:101C9C001A4B1B78012B2DD8194B1B789BB21A466B
:101CAC001849194803F008FA0346FB73FB7B022B17
:101CBC0002D0FB7B012B1DD1114AFB781370FB78F2
:101CCC001A4679680F4804F02FF80C4B1B78013337
:101CDC00DAB20A4B1A70094B1B78042B02D9074B4A
:101CEC0004221A70094B01221A7000F08DFD034674
:101CFC00074A136000BF1037BD4680BD3503002076
:101D0C003003002034020020A01F002036030020E6
:101D1C003803002080B584B000AF78607B681B6806
:101D2C003F4A934265D13F4B1B781A4600213E48EF
:101D3C0004F008F83B4B00221A703C4B1B78002B2C
:101D4C0005D03A4B1B78013BDAB2384B1A70374B43
:101D5C001B78002B40D00023FB601FE0FB68322275
:101D6C0002FB03F3304A9818FB680133322202FB62
:101D7C0003F32D4A9918FB6801332A4AD35C1A469F
:101D8C0003F0D2FFFB680133264AD15C254AFB687D
:101D9C0013440A461A70FB680133FB60234B1B7813
:101DAC001A46FB689342D9DB1E4B1B789BB21A4632
:101DBC001D491F4803F080F90346FB72FB7A022B86
:101DCC0002D0FB7A012B07D11A4B01221A7000F0BA
:101DDC001BFD0346184A136032221849144803F0BD
:101DEC00D7F9174B1B681A68154B1B6822F00402B5
:101DFC001A607B681B68134A93420CD11E2212494D
:101E0C00124803F0C5F9124B1B681A68104B1B687B
:101E1C0022F004021A6000BF1037BD4680BD00BF1F
:101E2C00003801403003002034020020350300202C
:101E3C00A01F00203603002038030020380D00209E
:101E4C006C20002000440040841E0020E41F002071
:101E5C00B020002080B582B002AF00F07DFC00F015
:101E6C004BF800F077F900F03FF900F08DF800F036
:101E7C00B9F800F0E5F800F00DF9FEF761F91E2352
:101E8C0000930223134A4021134801F063FC002203
:101E9C001021124801F0D2FA32221149114803F0F4
:101EAC0077F9114B1B681A680F4B1B6822F0040260
:101EBC001A601E220D490E4803F06AF90D4B1B687F
:101ECC001A680C4B1B6822F004021A60FEF7D8FA51
:101EDC00FCE700BF08000020F81E002000080140AD
:101EEC00A41E0020A01F00206C200020D81E002063
:101EFC00E41F0020B020002080B590B000AF07F1A7
:101F0C00180328220021184603F01CFF3B1D002259
:101F1C001A605A609A60DA601A610923BB614FF447
:101F2C008033FB6100233B620123BB6201233B63D3
:101F3C0002237B634FF48033BB634FF4E013FB63EA
:101F4C0007F11803184602F0BDFB0346002B01D025
:101F5C0000F056F90F237B600223BB600023FB606B
:101F6C004FF480633B6100237B613B1D02211846CB
:101F7C0002F02AFE0346002B01D000F041F900BF0D
:101F8C004037BD4680BD000080B500AF124B134AF0
:101F9C001A60114B124A5A600F4B00229A600E4B7A
:101FAC000022DA600C4B4FF480421A610A4B00227B
:101FBC005A61094B00229A61074B0022DA61064BE9
:101FCC0000221A62044801F051FA0346002B01D09A
:101FDC0000F016F900BF80BDF81E00200054004030
:101FEC00A086010080B500AF124B134A1A60114B4A
:101FFC00124A5A600F4B00229A600E4B0022DA6094
:10200C000C4B4FF480421A610A4B00225A61094B67
:10201C0000229A61074B0022DA61064B00221A62F9
:10202C00044801F023FA0346002B01D000F0E8F835
:10203C0000BF80BD4C1F002000580040A08601004E
:10204C0080B500AF114B124A1A60104B4FF4E132BD
:10205C005A600E4B00229A600C4B0022DA600B4B3C
:10206C0000221A61094B0C225A61084B00229A611A
:10207C00064B0022DA61054802F03EFF0346002BB6
:10208C0001D000F0BDF800BF80BD00BFA01F002034
:10209C000038014080B500AF114B124A1A60104B4A
:1020AC004FF416525A600E4B00229A600C4B0022D1
:1020BC00DA600B4B00221A61094B0C225A61084B57
:1020CC0000229A61064B0022DA61054802F014FFE7
:1020DC000346002B01D000F093F800BF80BD00BF79
:1020EC00E41F00200044004080B582B000AF184BC4
:1020FC005B69174A43F001035361154B5B6903F0AD
:10210C0001037B607B68002202210E2000F081FC21
:10211C000E2000F09AFC002202210F2000F079FC26
:10212C000F2000F092FC00220021102000F071FC26
:10213C00102000F08AFC00220021112000F069FC24
:10214C00112000F082FC00BF0837BD4680BD00BFE7
:10215C000010024080B588B000AF07F110030022D8
:10216C001A605A609A60DA60234B9B69224A43F0EA
:10217C0010039361204B9B6903F01003FB60FB6819
:10218C001D4B9B691C4A43F0200393611A4B9B69BE
:10219C0003F02003BB60BB68174B9B69164A43F0E6
:1021AC0004039361144B9B6903F004037B607B680D
:1021BC00114B9B69104A43F0080393610E4B9B69CA
:1021CC0003F008033B603B68012210210B4801F02F
:1021DC0035F910233B6101237B610123BB61022391
:1021EC00FB6107F110031946044800F0E7FE00BF3D
:1021FC002037BD4680BD00BF0010024000080140E2
:10220C0080B400AF72B600BFFEE7000080B485B0AA
:10221C0000AF154B9B69144A43F001039361124BB9
:10222C009B6903F00103BB60BB680F4BDB690E4A73
:10223C0043F08053D3610C4BDB6903F080537B601C
:10224C007B680A4B5B68FB60FB6823F0E063FB6018
:10225C00FB6843F00073FB60044AFB68536000BFEB
:10226C001437BD4680BC704700100240000001408E
:10227C0080B58AB000AF786007F1180300221A60AD
:10228C005A609A60DA607B681B682B4A934224D1AF
:10229C002A4B9B69294A43F008039361274B9B699E
:1022AC0003F008037B617B69C023BB611223FB61D4
:1022BC0003237B6207F118031946214800F07EFEC8
:1022CC001E4BDB691D4A43F40013D3611B4BDB69C6
:1022DC0003F400133B613B6929E07B681B68194AD6
:1022EC00934224D1154B9B69144A43F00803936124
:1022FC00124B9B6903F00803FB60FB684FF44063CF
:10230C00BB611223FB6103237B6207F1180319469F
:10231C000B4800F053FE094BDB69084A43F4800379
:10232C00D361064BDB6903F48003BB60BB6800BF61
:10233C002837BD4680BD00BF00540040001002404D
:10234C00000C01400058004080B582B000AF7860AE
:10235C007B681B68154A93420ED1154BDB69144AF6
:10236C0023F40013D3614021124800F0ABFF80210D
:10237C00104800F0A7FF14E07B681B680E4A9342DC
:10238C000FD10B4BDB690A4A23F48003D3614FF462
:10239C008061084800F096FF4FF40061054800F09A
:1023AC0091FF00BF0837BD4680BD00BF0054004000
:1023BC0000100240000C01400058004080B58AB06B
:1023CC0000AF786007F1180300221A605A609A6017
:1023DC00DA607B681B688C4A934240F087808B4B99
:1023EC009B698A4A43F480439361884B9B6903F44D
:1023FC0080437B617B69854B9B69844A43F0040372
:10240C009361824B9B6903F004033B613B694FF47E
:10241C000073BB610223FB6103237B6207F118038A
:10242C0019467B4800F0CAFD4FF48063BB61002362
:10243C00FB6100233B6207F118031946744800F056
:10244C00BDFD744B744A1A60724B10225A60714B6A
:10245C0000229A606F4B8022DA606E4B00221A6168
:10246C006C4B00225A616B4B00229A61694B002223
:10247C00DA61684800F004FB0346002B01D0FFF73B
:10248C00BFFE7B68634A5A63624A7B685362634B44
:10249C00634A1A60614B00225A60604B00229A60BA
:1024AC005E4B8022DA605D4B00221A615B4B00228E
:1024BC005A615A4B00229A61584B0022DA615748F4
:1024CC0000F0DEFA0346002B01D0FFF799FE7B6883
:1024DC00524A9A63514A7B6853620022022125209A
:1024EC0000F097FA252000F0B0FA89E07B681B68B1
:1024FC004C4A934240F08480444BDB69434A43F49A
:10250C000033D361414BDB6903F40033FB60FB68A0
:10251C003E4B9B693D4A43F0040393613B4B9B69E3
:10252C0003F00403BB60BB680423BB610223FB61A3
:10253C0003237B6207F118031946354800F03EFD72
:10254C000823BB610023FB6100233B6207F11803E6
:10255C0019462F4800F032FD334B344A1A60324B87
:10256C0000225A60304B00229A602F4B8022DA6096
:10257C002D4B00221A612C4B00225A612A4B00224F
:10258C009A61294B0022DA61274800F079FA034658
:10259C00002B01D0FFF734FE7B68234A9A63224A52
:1025AC007B685362224B234A1A60214B10225A60DB
:1025BC001F4B00229A601E4B8022DA601C4B0022BB
:1025CC001A611B4B00225A61194B00229A61184B5D
:1025DC000022DA61164800F053FA0346002B01D0B2
:1025EC00FFF70EFE7B68124A5A63114A7B685362EE
:1025FC0000220021262000F00CFA262000F025FAFB
:10260C0000BF2837BD4680BD003801400010024095
:10261C000008014028200020440002406C200020CB
:10262C005800024000440040B02000206C000240E2
:10263C00F42000208000024080B400AFFEE780B49C
:10264C0000AFFEE780B400AFFEE780B400AFFEE75A
:10265C0080B400AFFEE780B400AF00BFBD4680BCC5
:10266C00704780B400AF00BFBD4680BC704780B4DB
:10267C0000AF00BFBD4680BC704780B500AF00F016
:10268C00B1F800BF80BD000080B500AF024800F07B
:10269C0061FB00BF80BD00BF2820002080B500AFCB
:1026AC00024800F057FB00BF80BD00BF6C2000202B
:1026BC0080B500AF024800F04DFB00BF80BD00BFED
:1026CC00B020002080B500AF024800F043FB00BFF3
:1026DC0080BD00BFF420002080B500AF024802F09E
:1026EC00A7FD00BF80BD00BFA01F002080B500AFBC
:1026FC00024802F09DFD00BF80BD00BFE41F00201A
:10270C0080B400AF00BFBD4680BC70470C480D497B
:10271C000D4A002302E0D458C4500433C4188C4230
:10272C00F9D30A4A0A4C002301E013600432A24296
:10273C00FBD3FFF7E5FF03F0D3FAFFF78BFB7047F2
:10274C000000002018000020B45D000818000020D4
:10275C003C210020FEE7000080B500AF084B1B6851
:10276C00074A43F010031360032000F047F90A20D6
:10277C0000F008F8FFF74AFD0023184680BD00BFA3
:10278C000020024080B582B000AF7860124B1A680E
:10279C00124B1B7819464FF47A73B3FBF1F3B2FB6F
:1027AC00F3F3184600F05FF90346002B01D0012328
:1027BC000EE07B680F2B0AD8002279684FF0FF30AF
:1027CC0000F027F9064A7B681360002300E0012320
:1027DC0018460837BD4680BD0C00002014000020B0
:1027EC001000002080B400AF054B1B781A46054B37
:1027FC001B681344034A136000BFBD4680BC70477E
:10280C00140000203821002080B400AF024B1B685C
:10281C001846BD4680BC70473821002080B584B076
:10282C0000AF7860FFF7F0FFB8607B68FB60FB6877
:10283C00B3F1FF3F05D00A4B1B781A46FB681344D3
:10284C00FB6000BFFFF7E0FF0246BB68D31AFA68D3
:10285C009A42F7D800BF00BF1037BD4680BD00BFFD
:10286C001400002080B485B000AF78607B6803F062
:10287C000703FB600C4BDB68BB60BA684FF6FF03C9
:10288C001340BB60FB681A02BB68134343F0BF6381
:10289C0043F40033BB60044ABB68D36000BF1437F9
:1028AC00BD4680BC704700BF00ED00E080B400AFB7
:1028BC00044BDB681B0A03F007031846BD4680BCBB
:1028CC00704700BF00ED00E080B483B000AF03465A
:1028DC00FB7197F90730002B0BDBFB7903F01F0220
:1028EC00064997F907305B09012000FA02F241F81A
:1028FC00232000BF0C37BD4680BC704700E100E0D0
:10290C0080B483B000AF03463960FB7197F9073090
:10291C00002B0ADB3B68DAB20C4997F9073012013D
:10292C00D2B20B4483F800230AE03B68DAB20849C0
:10293C00FB7903F00F03043B1201D2B20B441A765D
:10294C0000BF0C37BD4680BC704700BF00E100E003
:10295C0000ED00E080B489B000AFF860B9607A6037
:10296C00FB6803F00703FB61FB69C3F10703042B4E
:10297C0028BF0423BB61FB690433062B02D9FB6916
:10298C00033B00E000237B614FF0FF32BB6902FA8E
:10299C0003F3DA43BB681A407B699A404FF0FF316E
:1029AC007B6901FA03F3D9437B680B401343184648
:1029BC002437BD4680BC704780B582B000AF7860CC
:1029CC007B68013BB3F1807F01D301230FE00A4AFE
:1029DC007B68013B53600F214FF0FF30FFF790FFF6
:1029EC00054B00229A60044B07221A6000231846FC
:1029FC000837BD4680BD00BF10E000E080B582B056
:102A0C0000AF78607868FFF72DFF00BF0837BD4630
:102A1C0080BD80B586B000AF0346B9607A60FB73A9
:102A2C0000237B61FFF742FF78617A68B9687869A7
:102A3C00FFF790FF024697F90F3011461846FFF743
:102A4C005FFF00BF1837BD4680BD80B582B000AFB8
:102A5C000346FB7197F907301846FFF735FF00BFA7
:102A6C000837BD4680BD80B582B000AF786078680D
:102A7C00FFF7A2FF034618460837BD4680BD00008D
:102A8C0080B485B000AF78600023FB607B68002BBE
:102A9C0001D1012343E07B681B681A46224B134487
:102AAC00224AA2FB03231B099A007B681A647B68E9
:102ABC001F4ADA637B68022283F821207B681B683B
:102ACC001B68FB60FB6823F47F5323F03003FB602F
:102ADC007B685A687B689B681A437B68DB681A437F
:102AEC007B681B691A437B685B691A437B689B692B
:102AFC001A437B68DB691343FA681343FB607B68FA
:102B0C001B68FA681A607B6800229A637B68012252
:102B1C0083F821207B68002283F8202000231846AC
:102B2C001437BD4680BC7047F8FFFDBFCDCCCCCC74
:102B3C000000024080B586B000AFF860B9607A60E2
:102B4C003B600023FB75FB6893F82030012B01D10F
:102B5C0002234AE0FB68012283F82020FB6893F8EB
:102B6C002130012B3AD1FB68022283F82120FB682B
:102B7C0000229A63FB681B681A68FB681B6822F0CA
:102B8C0001021A603B687A68B968F86800F0E8F9E5
:102B9C00FB68DB6A002B08D0FB681B681A68FB68B3
:102BAC001B6842F00E021A600FE0FB681B681A6883
:102BBC00FB681B6822F004021A60FB681B681A6829
:102BCC00FB681B6842F00A021A60FB681B681A68F3
:102BDC00FB681B6842F001021A6005E0FB680022EA
:102BEC0083F820200223FB75FB7D18461837BD4661
:102BFC0080BD80B485B000AF78600023FB737B6828
:102C0C0093F82130022B08D07B6804229A637B68EE
:102C1C00002283F82020012320E07B681B681A68BF
:102C2C007B681B6822F00E021A607B681B681A68AE
:102C3C007B681B6822F001021A607B681A6C7B6847
:102C4C00DB6B012101FA02F25A607B68012283F8E6
:102C5C0021207B68002283F82020FB7B1846143748
:102C6C00BD4680BC7047000080B584B000AF786072
:102C7C000023FB737B6893F82130022B05D07B6813
:102C8C0004229A630123FB7351E07B681B681A686A
:102C9C007B681B6822F00E021A607B681B681A683E
:102CAC007B681B6822F001021A607B681B68224A51
:102CBC00934229D07B681B68204A934222D07B68C0
:102CCC001B681F4A93421AD07B681B681D4A9342AB
:102CDC0012D07B681B681C4A93420AD07B681B6825
:102CEC001A4A934202D14FF480130EE04FF08073D6
:102CFC000BE04FF4803308E04FF4805305E04FF4C1
:102D0C00807302E0102300E00123114A53607B68BA
:102D1C00012283F821207B68002283F820207B6825
:102D2C005B6B002B03D07B685B6B78689847FB7BF5
:102D3C0018461037BD4680BD080002401C000240FA
:102D4C003000024044000240580002406C00024037
:102D5C000000024080B584B000AF78607B68DB6B0C
:102D6C001B68FB607B681B681B68BB607B681B6C0B
:102D7C0004229A40FB681340002B4FD0BB6803F031
:102D8C000403002B4AD07B681B681B6803F02003EC
:102D9C00002B07D17B681B681A687B681B6822F0C4
:102DAC0004021A607B681B68664A934229D07B68D0
:102DBC001B68654A934222D07B681B68634A934226
:102DCC001AD07B681B68624A934212D07B681B68DE
:102DDC00604A93420AD07B681B685F4A934202D1D7
:102DEC004FF480030EE04FF080630BE04FF4802330
:102DFC0008E04FF4804305E04FF4806302E0402389
:102E0C0000E00423554A53607B68DB6A002B00F01A
:102E1C0094807B68DB6A786898478EE07B681B6CD3
:102E2C0002229A40FB681340002B56D0BB6803F07B
:102E3C000203002B51D07B681B681B6803F0200336
:102E4C00002B0BD17B681B681A687B681B6822F00F
:102E5C000A021A607B68012283F821207B681B68B8
:102E6C00384A934229D07B681B68374A934222D058
:102E7C007B681B68354A93421AD07B681B68344ABE
:102E8C00934212D07B681B68324A93420AD07B680B
:102E9C001B68314A934202D14FF400130EE04FF0FD
:102EAC0000730BE04FF4003308E04FF4005305E0DF
:102EBC004FF4007302E0202300E00223274A536002
:102ECC007B68002283F820207B689B6A002B34D01F
:102EDC007B689B6A786898472FE07B681B6C08229C
:102EEC009A40FB681340002B28D0BB6803F0080302
:102EFC00002B23D07B681B681A687B681B6822F048
:102F0C000E021A607B681A6C7B68DB6B012101FA7C
:102F1C0002F25A607B6801229A637B68012283F873
:102F2C0021207B68002283F820207B681B6B002B00
:102F3C0004D07B681B6B7868984700BF00BF1037C4
:102F4C00BD4680BD080002401C000240300002401B
:102F5C0044000240580002406C0002400000024055
:102F6C0080B485B000AFF860B9607A603B60FB68F4
:102F7C001A6CFB68DB6B012101FA02F25A60FB68E8
:102F8C001B683A685A60FB685B68102B08D1FB68B9
:102F9C001B687A689A60FB681B68BA68DA6007E09D
:102FAC00FB681B68BA689A60FB681B687A68DA6011
:102FBC0000BF1437BD4680BC7047000080B48BB096
:102FCC0000AF7860396000237B6200233B6269E1CB
:102FDC0001227B6A02FA03F3FB613B681B68FA6906
:102FEC001340BB61BA69FB699A4240F058813B6857
:102FFC005B689A4A93425ED0984A934275D8984A35
:10300C00934258D0964A93426FD8964A934252D0E4
:10301C00944A934269D8944A93424CD0924A934230
:10302C0063D8924A934246D0904A93425DD8122B71
:10303C002AD8122B59D801A252F823F0C330000819
:10304C009D300008AF300008F1300008F730000860
:10305C00F7300008F7300008F7300008F7300008A8
:10306C00F7300008F7300008F7300008F730000898
:10307C00F7300008F7300008F7300008F730000888
:10308C00A5300008B9300008794A934213D02CE0DF
:10309C003B68DB683B6229E03B68DB6804333B62DE
:1030AC0024E03B68DB6808333B621FE03B68DB686D
:1030BC000C333B621AE03B689B68002B02D1042363
:1030CC003B6213E03B689B68012B05D108233B62F4
:1030DC007B68FA691A6109E008233B627B68FA692C
:1030EC005A6103E000233B6200E000BFBB69FF2B89
:1030FC0001D87B6801E07B6804337B61BB69FF2BE3
:10310C0002D87B6A9B0002E07B6A083B9B003B6118
:10311C007B691A680F213B6901FA03F3DB431A4000
:10312C00396A3B6901FA03F31A437B691A603B68FD
:10313C005B6803F08053002B00F0B1804D4B9B6912
:10314C004C4A43F0010393614A4B9B6903F0010322
:10315C00BB60BB68484A7B6A9B08023352F8233039
:10316C00FB607B6A03F003039B000F2202FA03F35C
:10317C00DB43FA681340FB607B68404A934213D0F0
:10318C007B683F4A93420DD07B683E4A934207D0FE
:10319C007B683D4A934201D1032306E0042304E0FB
:1031AC00022302E0012300E000237A6A02F003020A
:1031BC0092009340FA681343FB602F497B6A9B088B
:1031CC000233FA6841F823203B685B6803F48033D0
:1031DC00002B06D02D4B1A682C49BB6913430B608E
:1031EC0006E02A4B1A68BB69DB43284913400B6085
:1031FC003B685B6803F40033002B06D0234B5A6802
:10320C002249BB6913434B6006E0204B5A68BB69EB
:10321C00DB431E4913404B603B685B6803F480132F
:10322C00002B06D0194B9A681849BB6913438B6065
:10323C0006E0164B9A68BB69DB43144913408B605C
:10324C003B685B6803F40013002B21D00F4BDA684A
:10325C000E49BB691343CB6021E000BF0000321064
:10326C00000031100000221000002110000012108C
:10327C000000111000100240000001400008014045
:10328C00000C0140001001400014014000040140FA
:10329C000B4BDA68BB69DB4309491340CB607B6A93
:1032AC0001337B623B681A687B6A22FA03F3002BBA
:1032BC007FF48EAE00BF00BF2C37BD4680BC70477C
:1032CC000004014080B489B000AF786039600023FD
:1032DC00FB619AE00122FB6902FA03F33A6813409E
:1032EC00BB61BB69002B00F08D804E4AFB699B08CB
:1032FC00023352F823307B61FB6903F003039B001C
:10330C000F2202FA03F37A6913407B617B68464A09
:10331C00934213D07B68454A93420DD07B68444A54
:10332C00934207D07B68434A934201D1032306E0C2
:10333C00042304E0022302E0012300E00023FA69E5
:10334C0002F00302920093407A699A4232D1FB69EF
:10335C0003F003039B000F2202FA03F37B61314A53
:10336C00FB699B08023352F823107B69DA432D4822
:10337C00FB699B080A40023340F823202E4B1A6845
:10338C00BB69DB432C4913400B602B4B5A68BB6960
:10339C00DB43294913404B60274B9A68BB69DB43DD
:1033AC00254913408B60244BDA68BB69DB43224907
:1033BC001340CB60BB69FF2B01D87B6801E07B68B5
:1033CC0004333B61BB69FF2B02D8FB699B0002E015
:1033DC00FB69083B9B00FB603B691A680F21FB688B
:1033EC0001FA03F3DB431A400421FB6801FA03F3EF
:1033FC001A433B691A607B68DA68BB69DB431A4085
:10340C007B68DA60FB690133FB613A68FB6922FA7D
:10341C0003F3002B7FF45EAF00BF00BF2437BD4623
:10342C0080BC70470000014000080140000C0140C6
:10343C0000100140001401400004014080B483B02E
:10344C0000AF78600B467B8013467B707B78002B3B
:10345C0003D07A887B681A6103E07B881A047B6846
:10346C001A6100BF0C37BD4680BC704780B584B074
:10347C0000AF78607B68002B01D101232BE17B68C6
:10348C0093F83D30DBB2002B06D17B68002283F829
:10349C003C207868FEF7ECFE7B68242283F83D2004
:1034AC007B681B681A687B681B6822F001021A6033
:1034BC007B681B681A687B681B6842F400421A60C0
:1034CC007B681B681A687B681B6822F400421A60D0
:1034DC0001F0CCFCF8607B685B68814A934207D8AA
:1034EC00FB68804A934294BF01230023DBB206E0C1
:1034FC00FB687D4A934294BF01230023DBB2002B6F
:10350C0001D00123E7E0FB68784AA2FB03239B0C64
:10351C00BB607B681B685B6823F03F017B681B68A2
:10352C00BA680A435A607B681B681B6A23F03F0128
:10353C007B685B686A4A934202D8BB68013309E036
:10354C00BB684FF4967202FB03F3694AA2FB032398
:10355C009B0901337A6812680B4313627B681B6802
:10356C00DB6923F44F4222F0FF027B685B685C4905
:10357C008B4219D8FB68591E7B685B685B00B1FBFA
:10358C00F3F3591C40F6FC730B40002B0AD0FB687C
:10359C00591E7B685B685B00B1FBF3F30133C3F32B
:1035AC000B0351E004234FE07B689B68002B11D187
:1035BC00FB68581E7B6859680B465B000B44B0FBDC
:1035CC00F3F30133C3F30B03002B0CBF01230023D4
:1035DC00DBB212E0FB68581E7B6859680B469B00F7
:1035EC000B4499000B44B0FBF3F30133C3F30B030F
:1035FC00002B0CBF01230023DBB2002B01D00123D5
:10360C0022E07B689B68002B0ED1FB68581E7B6800
:10361C0059680B465B000B44B0FBF3F30133C3F367
:10362C000B0343F400430FE0FB68581E7B6859689A
:10363C000B469B000B4499000B44B0FBF3F3013396
:10364C00C3F30B0343F44043796809681343CB611C
:10365C007B681B681B6823F0C0017B68DA697B6898
:10366C001B6A1A437B681B680A431A607B681B68D9
:10367C009B6823F4034323F0FF037A6811697A688B
:10368C00D26811437A6812680B4393607B681B689D
:10369C00DB6823F0FF017B685A697B689B691A43DE
:1036AC007B681B680A43DA607B681B681A687B6856
:1036BC001B6842F001021A607B6800221A647B6866
:1036CC00202283F83D207B6800221A637B6800224D
:1036DC0083F83E20002318461037BD4680BD00BF3E
:1036EC00A08601007F841E00FF083D0083DE1B4383
:1036FC00D34D621080B582B000AF78607B68002B30
:10370C0001D1012321E07B68242283F83D207B68D2
:10371C001B681A687B681B6822F001021A607868C3
:10372C00FEF712FE7B6800221A647B68002283F885
:10373C003D207B6800221A637B68002283F83E20C0
:10374C007B68002283F83C20002318460837BD46CE
:10375C0080BD000080B588B002AFF8607A601A4670
:10376C000B467B8113463B81FFF74EF87861FB6873
:10377C0093F83D30DBB2202B40F0E0807B69009366
:10378C00192301227049F86800F0C0FD0346002B94
:10379C0001D00223D3E0FB6893F83C30012B01D11C
:1037AC000223CCE0FB68012283F83C20FB681B68F9
:1037BC001B6803F00103012B07D0FB681B681A6818
:1037CC00FB681B6842F001021A60FB681B681A68F0
:1037DC00FB681B6822F400621A60FB68212283F8E4
:1037EC003D20FB68102283F83E20FB6800221A64FF
:1037FC00FB687A685A62FB683A895A85FB685B8D6C
:10380C009AB2FB681A85FB68504ADA6279897B693F
:10381C003A6AF86800F02AFC0346002B01D0012319
:10382C008DE000233B61FB681B685B693B61FB68B7
:10383C001B689B693B613B6966E07A69396AF86889
:10384C0000F03AFE0346002B0DD0FB681B6C042BDA
:10385C0007D1FB681B681A68FB681B6842F400728E
:10386C001A6001236BE0FB685B6A1A78FB681B68C3
:10387C001A61FB685B6A5A1CFB685A62FB685B8DB9
:10388C009BB2013B9AB2FB685A85FB681B8D013BCE
:10389C009AB2FB681A85FB681B685B6903F004032A
:1038AC00042B1BD1FB681B8D002B17D0FB685B6AAC
:1038BC001A78FB681B681A61FB685B6A5A1CFB6808
:1038CC005A62FB685B8D9BB2013B9AB2FB685A85CE
:1038DC00FB681B8D013B9AB2FB681A857A69396AC1
:1038EC00F86800F02AFE0346002B0DD0FB681B6C19
:1038FC00042B07D1FB681B681A68FB681B6842F431
:10390C0000721A6001231AE0FB681B8D002B94D106
:10391C00FB681B681A68FB681B6842F400721A602B
:10392C00FB68202283F83D20FB68002283F83E20B0
:10393C00FB68002283F83C20002300E00223184699
:10394C001837BD4680BD00BF020010000000FFFF0D
:10395C0080B58CB002AFF8607A601A460B467B815A
:10396C0013463B8100233B62FEF74EFF7862FB68F7
:10397C0093F83D30DBB2202B40F03F827B6A009302
:10398C00192301227F49F86800F0C0FC0346002B84
:10399C0001D0022332E2FB6893F83C30012B01D1B9
:1039AC0002232BE2FB68012283F83C20FB681B6896
:1039BC001B6803F00103012B07D0FB681B681A6816
:1039CC00FB681B6842F001021A60FB681B681A68EE
:1039DC00FB681B6822F400621A60FB68222283F8E1
:1039EC003D20FB68102283F83E20FB6800221A64FD
:1039FC00FB687A685A62FB683A895A85FB685B8D6A
:103A0C009AB2FB681A85FB685F4ADA6279897B6A2D
:103A1C003A6BF86800F0ACFB0346002B01D0012395
:103A2C00ECE1FB681B8D002B13D10023FB61FB68C1
:103A3C001B685B69FB61FB681B689B69FB61FB692D
:103A4C00FB681B681A68FB681B6842F400721A60FA
:103A5C00C0E1FB681B8D012B1ED1FB681B681A682B
:103A6C00FB681B6822F480621A6072B600BF0023E8
:103A7C00BB61FB681B685B69BB61FB681B689B696E
:103A8C00BB61BB69FB681B681A68FB681B6842F466
:103A9C0000721A6062B635E0FB681B8D022B1ED1DA
:103AAC00FB681B681A68FB681B6842F400621A60AA
:103ABC0072B600BF00237B61FB681B685B697B618E
:103ACC00FB681B689B697B617B69FB681B681A68D8
:103ADC00FB681B6822F480621A6062B612E0FB6815
:103AEC001B681A68FB681B6842F480621A6000232A
:103AFC003B61FB681B685B693B61FB681B689B69EE
:103B0C003B613B6966E1FB681B8D032B00F21F8157
:103B1C00FB681B8D012B23D17A6A396BF86800F096
:103B2C004DFD0346002B01D0012367E1FB681B68A8
:103B3C001A69FB685B6AD2B21A70FB685B6A5A1C22
:103B4C00FB685A62FB681B8D013B9AB2FB681A85B5
:103B5C00FB685B8D9BB2013B9AB2FB685A8539E1DD
:103B6C00FB681B8D022B52D17B6A00933B6B0022AE
:103B7C000649F86800F0CAFB0346002B08D0012365
:103B8C003CE100BF020010000000FFFF0400010038
:103B9C0072B600BFFB681B681A68FB681B6842F4AE
:103BAC0000721A60FB681B681A69FB685B6AD2B208
:103BBC001A70FB685B6A5A1CFB685A62FB681B8DA7
:103BCC00013B9AB2FB681A85FB685B8D9BB2013B8B
:103BDC009AB2FB685A8562B600BFFB681B681A690B
:103BEC00FB685B6AD2B21A70FB685B6A5A1CFB6892
:103BFC005A62FB681B8D013B9AB2FB681A85FB6805
:103C0C005B8D9BB2013B9AB2FB685A85E2E07B6A02
:103C1C0000933B6B00227B49F86800F077FB03466E
:103C2C00002B01D00123E9E0FB681B681A68FB68D4
:103C3C001B6822F480621A6072B600BFFB681B68B6
:103C4C001A69FB685B6AD2B21A70FB685B6A5A1C11
:103C5C00FB685A62FB681B8D013B9AB2FB681A85A4
:103C6C00FB685B8D9BB2013B9AB2FB685A85664B35
:103C7C001B68DB08654AA2FB03231A0A13469B0048
:103C8C001344DA00D31A3B623B6A013B3B623B6A4A
:103C9C00002B18D1FB6800221A63FB68202283F8E2
:103CAC003D20FB68002283F83E20FB681B6C43F030
:103CBC002002FB681A6462B600BFFB68002283F81E
:103CCC003C2001239AE0FB681B685B6903F004034A
:103CDC00042BD9D1FB681B681A68FB681B6842F47B
:103CEC0000721A60FB681B681A69FB685B6AD2B2C7
:103CFC001A70FB685B6A5A1CFB685A62FB681B8D66
:103D0C00013B9AB2FB681A85FB685B8D9BB2013B49
:103D1C009AB2FB685A8562B600BFFB681B681A69C9
:103D2C00FB685B6AD2B21A70FB685B6A5A1CFB6850
:103D3C005A62FB681B8D013B9AB2FB681A85FB68C3
:103D4C005B8D9BB2013B9AB2FB685A8542E07A6A62
:103D5C00396BF86800F032FC0346002B01D00123CC
:103D6C004CE0FB681B681A69FB685B6AD2B21A707C
:103D7C00FB685B6A5A1CFB685A62FB681B8D013B33
:103D8C009AB2FB681A85FB685B8D9BB2013B9AB2B9
:103D9C00FB685A85FB681B685B6903F00403042B02
:103DAC0018D1FB681B681A69FB685B6AD2B21A707F
:103DBC00FB685B6A5A1CFB685A62FB681B8D013BF3
:103DCC009AB2FB681A85FB685B8D9BB2013B9AB279
:103DDC00FB685A85FB681B8D002B7FF494AEFB6847
:103DEC00202283F83D20FB68002283F83E20FB68EC
:103DFC00002283F83C20002300E0022318462837D9
:103E0C00BD4680BD040001000C00002089B5F814EB
:103E1C0080B58AB002AFF8607A603B600B467B815C
:103E2C00FEF7F2FCF8610123BB61FB6893F83D30AF
:103E3C00DBB2202B40F01181FB6900931923012286
:103E4C008849F86800F062FA0346002B01D002237F
:103E5C0004E1FB6893F83C30012B01D10223FDE017
:103E6C00FB68012283F83C20FB681B681B6803F08D
:103E7C000103012B07D0FB681B681A68FB681B68E1
:103E8C0042F001021A60FB681B681A68FB681B6829
:103E9C0022F400621A60FB68242283F83D20FB6840
:103EAC0000221A64FB68704ADA62FB681B681A68A5
:103EBC00FB681B6842F480721A60FB6900933B68D4
:103ECC0000224FF00111F86800F020FA0346002B95
:103EDC000DD0FB681B681B6803F48073B3F5807FFF
:103EEC0003D1FB684FF400721A640323B6E07B899C
:103EFC00DBB21A46FB681B6802F0FE021A61FEF781
:103F0C0083FCF861FB681B685B6903F00203022BFE
:103F1C000CBF01230023DBB2FB75FB681B685B69DC
:103F2C0003F48063B3F5806F0CBF01230023DBB275
:103F3C00BB7525E0FEF768FC0246FB69D31A3A68AC
:103F4C009A4202D33B68002B03D1FB68A02283F872
:103F5C003D20FB681B685B6903F00203022B0CBF5E
:103F6C0001230023DBB2FB75FB681B685B6903F460
:103F7C008063B3F5806F0CBF01230023DBB2BB75EC
:103F8C00FB6893F83D30DBB2A02B05D0FB7D002BFA
:103F9C0002D1BB7D002BCDD0FB68202283F83D20C5
:103FAC00FB681B685B6903F00203022B29D1FB68D9
:103FBC001B681A68FB681B6842F400721A600023C5
:103FCC003B61FB681B685B693B61FB681B689B6919
:103FDC003B613B69FB690093192301222149F86875
:103FEC0000F094F90346002B01D0012336E0FB6866
:103FFC00202283F83D20FB68002283F83C2000231C
:10400C002CE0FB681B681A68FB681B6842F40072A2
:10401C001A60FB681B686FF480625A61FB6900933D
:10402C00192301220F49F86800F070F90346002BA0
:10403C0001D0012312E0BB690133BB61BA697B6813
:10404C009A42FFF432AFFB68202283F83D20FB68D4
:10405C00002283F83C20012300E00223184620377D
:10406C00BD4680BD020010000000FFFF80B588B087
:10407C0002AFF8607A603B600B467B81FB68DB6AC1
:10408C007B617B69082B06D07B69012B03D07B6994
:10409C0013F5803F08D1FB681B681A68FB681B6826
:1040AC0042F480721A600BE0FB681B6B122B07D179
:1040BC00FB681B681A68FB681B6842F480721A6004
:1040CC003B6800937B6800224FF00111F86800F008
:1040DC001DF90346002B0DD0FB681B681B6803F40D
:1040EC008073B3F5807F03D1FB684FF400721A64C0
:1040FC00032335E0FB681B69B3F5804F08D17B893E
:10410C00DBB21A46FB681B6802F0FE021A611BE068
:10411C007B89DB11DBB203F00603DBB263F00F0328
:10412C00DAB2FB681B681A613B687A680E49F8685A
:10413C0000F043F90346002B01D0012310E07B89EA
:10414C00DAB2FB681B681A613B687A680749F86841
:10415C0000F033F90346002B01D0012300E00023CB
:10416C0018461837BD4680BD08000100020001004A
:10417C0080B588B002AFF8607A603B600B467B81FB
:10418C00FB68DB6A7B61FB681B681A68FB681B6851
:10419C0042F480621A607B69082B06D07B69012B84
:1041AC0003D07B6913F5803F08D1FB681B681A6844
:1041BC00FB681B6842F480721A600BE0FB681B6B97
:1041CC00112B07D1FB681B681A68FB681B6842F44B
:1041DC0080721A603B6800937B6800224FF00111DB
:1041EC00F86800F093F80346002B0DD0FB681B68B1
:1041FC001B6803F48073B3F5807F03D1FB684FF425
:10420C0000721A64032379E0FB681B69B3F5804FD5
:10421C0008D17B89DBB243F00103DAB2FB681B687F
:10422C001A615FE07B89DB11DBB203F00603DBB2C2
:10423C0063F00F03DAB2FB681B681A613B687A689B
:10424C003049F86800F0B9F80346002B01D001237F
:10425C0054E07B89DAB2FB681B681A613B687A68A8
:10426C002949F86800F0A9F80346002B01D0012376
:10427C0044E000233B61FB681B685B693B61FB68A6
:10428C001B689B693B613B69FB681B681A68FB6890
:10429C001B6842F480721A603B6800937B680022B2
:1042AC004FF00111F86800F031F80346002B0DD0E7
:1042BC00FB681B681B6803F48073B3F5807F03D124
:1042CC00FB684FF400721A64032317E07B89DB113F
:1042DC00DBB203F00603DBB263F00E03DAB2FB6869
:1042EC001B681A613B687A680749F86800F065F842
:1042FC000346002B01D0012300E000231846183799
:10430C00BD4680BD080001000200010080B584B0EC
:10431C0000AFF860B9603B601346FB7125E03B6869
:10432C00B3F1FF3F21D0FEF76FFA0246BB69D31AF7
:10433C003A689A4202D33B68002B16D1FB680022E4
:10434C001A63FB68202283F83D20FB68002283F867
:10435C003E20FB681B6C43F02002FB681A64FB6870
:10436C00002283F83C20012323E0BB681B0CDBB24A
:10437C00012B0DD1FB681B685B69DA43BB681340EA
:10438C009BB2002B0CBF01230023DBB21A460CE0BE
:10439C00FB681B689B69DA43BB6813409BB2002B1C
:1043AC000CBF01230023DBB21A46FB799A42B6D02C
:1043BC00002318461037BD4680BD80B584B000AFD1
:1043CC00F860B9607A603B6051E0FB681B685B6920
:1043DC0003F48063B3F5806F23D1FB681B681A6804
:1043EC00FB681B6842F400721A60FB681B686FF470
:1043FC0080625A61FB6800221A63FB68202283F8F2
:10440C003D20FB68002283F83E20FB681B6C43F0C8
:10441C000402FB681A64FB68002283F83C20012329
:10442C0046E07B68B3F1FF3F21D0FEF7EDF9024681
:10443C003B68D31A7A689A4202D37B68002B16D158
:10444C00FB6800221A63FB68202283F83D20FB687E
:10445C00002283F83E20FB681B6C43F02002FB68B3
:10446C001A64FB68002283F83C20012320E0BB681F
:10447C001B0CDBB2012B0CD1FB681B685B69DA43AC
:10448C00BB6813409BB2002B14BF01230023DBB28B
:10449C000BE0FB681B689B69DA43BB6813409BB25B
:1044AC00002B14BF01230023DBB2002B8DD1002382
:1044BC0018461037BD4680BD80B584B000AFF8609B
:1044CC00B9607A602DE0F86800F0CEF80346002B56
:1044DC0001D001232DE0BB68B3F1FF3F21D0FEF7E3
:1044EC0093F902467B68D31ABA689A4202D3BB6826
:1044FC00002B16D1FB6800221A63FB68202283F87C
:10450C003D20FB68002283F83E20FB681B6C43F0C7
:10451C002002FB681A64FB68002283F83C2001230C
:10452C0007E0FB681B685B6903F08003802BCAD132
:10453C00002318461037BD4680BD80B584B000AF4F
:10454C00F860B9607A602DE0F86800F08DF80346E9
:10455C00002B01D001232DE0BB68B3F1FF3F21D02C
:10456C00FEF752F902467B68D31ABA689A4202D314
:10457C00BB68002B16D1FB6800221A63FB68202253
:10458C0083F83D20FB68002283F83E20FB681B6CFF
:10459C0043F02002FB681A64FB68002283F83C207D
:1045AC00012307E0FB681B685B6903F00403042B21
:1045BC00CAD1002318461037BD4680BD80B584B0E3
:1045CC0000AFF860B9607A6042E0FB681B685B6919
:1045DC0003F01003102B19D1FB681B686FF010024D
:1045EC005A61FB6800221A63FB68202283F83D2085
:1045FC00FB68002283F83E20FB681A6CFB681A6487
:10460C00FB68002283F83C20012329E0FEF7FCF82C
:10461C0002467B68D31ABA689A4202D3BB68002B55
:10462C0016D1FB6800221A63FB68202283F83D2018
:10463C00FB68002283F83E20FB681B6C43F02002D1
:10464C00FB681A64FB68002283F83C20012307E016
:10465C00FB681B685B6903F04003402BB5D100235A
:10466C0018461037BD4680BD80B483B000AF78606B
:10467C007B681B685B6903F48063B3F5806F1BD1A7
:10468C007B681B686FF480625A617B6800221A6336
:10469C007B68202283F83D207B68002283F83E2033
:1046AC007B681B6C43F004027B681A647B680022F5
:1046BC0083F83C20012300E0002318460C37BD464C
:1046CC0080BC704780B586B000AF78607B68002BEB
:1046DC0001D1012372E27B681B6803F00103002BFC
:1046EC0000F08780924B5B6803F00C03042B0CD01A
:1046FC008F4B5B6803F00C03082B12D18C4B5B685F
:10470C0003F48033B3F5803F0BD1894B1B6803F462
:10471C000033002B6CD07B685B68002B68D10123C5
:10472C004CE27B685B68B3F5803F06D1804B1B681D
:10473C007F4A43F4803313602EE07B685B68002B68
:10474C000CD17B4B1B687A4A23F480331360784B73
:10475C001B68774A23F4802313601DE07B685B6839
:10476C00B3F5A02F0CD1724B1B68714A43F4802314
:10477C0013606F4B1B686E4A43F4803313600BE07D
:10478C006B4B1B686A4A23F480331360684B1B68BD
:10479C00674A23F4802313607B685B68002B13D07B
:1047AC00FEF732F8386108E0FEF72EF802463B6956
:1047BC00D31A642B01D9032300E25D4B1B6803F46D
:1047CC000033002BF0D014E0FEF71EF8386108E03F
:1047DC00FEF71AF802463B69D31A642B01D903235E
:1047EC00ECE1534B1B6803F40033002BF0D100E0D9
:1047FC0000BF7B681B6803F00203002B63D04C4B9B
:10480C005B6803F00C03002B0BD0494B5B6803F087
:10481C000C03082B1CD1464B5B6803F48033002B34
:10482C0016D1434B1B6803F00203002B05D07B68A9
:10483C001B69012B01D00123C0E13D4B1B6823F008
:10484C00F8027B685B69DB00394913430B603AE083
:10485C007B681B69002B20D0364B01221A60FDF7B8
:10486C00D3FF386108E0FDF7CFFF02463B69D31A4E
:10487C00022B01D90323A1E12D4B1B6803F002038A
:10488C00002BF0D02A4B1B6823F0F8027B685B6985
:10489C00DB00274913430B6015E0264B00221A60FE
:1048AC00FDF7B2FF386108E0FDF7AEFF02463B6949
:1048BC00D31A022B01D9032380E11D4B1B6803F093
:1048CC000203002BF0D17B681B6803F00803002B5C
:1048DC003AD07B689B69002B19D0174B01221A60C8
:1048EC00FDF792FF386108E0FDF78EFF02463B6949
:1048FC00D31A022B01D9032360E10D4B5B6A03F041
:10490C000203002BF0D0012000F0D8FA1CE00A4B77
:10491C0000221A60FDF778FF38610FE0FDF774FF95
:10492C0002463B69D31A022B08D9032346E100BF88
:10493C00001002400000424280044242924B5B6AEB
:10494C0003F00203002BE9D17B681B6803F004031E
:10495C00002B00F0A6800023FB758B4BDB6903F06A
:10496C008053002B0DD1884BDB69874A43F0805371
:10497C00D361854BDB6903F08053BB60BB680123BB
:10498C00FB75824B1B6803F48073002B18D17F4B93
:10499C001B687E4A43F480731360FDF735FF386162
:1049AC0008E0FDF731FF02463B69D31A642B01D9AD
:1049BC00032303E1754B1B6803F48073002BF0D0C9
:1049CC007B68DB68012B06D16F4B1B6A6E4A43F088
:1049DC00010313622DE07B68DB68002B0CD16A4B62
:1049EC001B6A694A23F001031362674B1B6A664A10
:1049FC0023F0040313621CE07B68DB68052B0CD1ED
:104A0C00614B1B6A604A43F0040313625E4B1B6AE2
:104A1C005D4A43F0010313620BE05B4B1B6A5A4A7D
:104A2C0023F001031362584B1B6A574A23F004030B
:104A3C0013627B68DB68002B15D0FDF7E5FE38614F
:104A4C000AE0FDF7E1FE02463B69D31A41F28832D7
:104A5C00934201D90323B1E04B4B1B6A03F00203D1
:104A6C00002BEED014E0FDF7CFFE38610AE0FDF725
:104A7C00CBFE02463B69D31A41F28832934201D9EC
:104A8C0003239BE0404B1B6A03F00203002BEED187
:104A9C00FB7D012B05D13C4BDB693B4A23F080535A
:104AAC00D3617B68DB69002B00F08780364B5B6839
:104ABC0003F00C03082B61D07B68DB69022B46D119
:104ACC00334B00221A60FDF79FFE386108E0FDF7BA
:104ADC009BFE02463B69D31A022B01D903236DE0DE
:104AEC00294B1B6803F00073002BF0D17B681B6A09
:104AFC00B3F5803F08D1244B5B6823F400327B680C
:104B0C009B68214913434B601F4B5B6823F4741261
:104B1C007B68196A7B685B6A0B431B4913434B60C8
:104B2C001B4B01221A60FDF76FFE386108E0FDF7A0
:104B3C006BFE02463B69D31A022B01D903233DE0DD
:104B4C00114B1B6803F00073002BF0D035E0104BB9
:104B5C0000221A60FDF758FE386108E0FDF754FE9C
:104B6C0002463B69D31A022B01D9032326E0064BDC
:104B7C001B6803F00073002BF0D11EE07B68DB692F
:104B8C00012B07D1012319E00010024000700040F6
:104B9C00600042420B4B5B68FB60FB6803F48032A5
:104BAC007B681B6A9A4206D1FB6803F470127B681F
:104BBC005B6A9A4201D0012300E0002318461837A3
:104BCC00BD4680BD0010024080B584B000AF786057
:104BDC0039607B68002B01D10123D0E06A4B1B6844
:104BEC0003F007033A689A4210D9674B1B6823F00D
:104BFC00070265493B6813430B60634B1B6803F06A
:104C0C0007033A689A4201D00123B8E07B681B681D
:104C1C0003F00203002B20D07B681B6803F0040315
:104C2C00002B05D0594B5B68584A43F4E063536042
:104C3C007B681B6803F00803002B05D0534B5B68A3
:104C4C00524A43F460535360504B5B6823F0F002BC
:104C5C007B689B684D4913434B607B681B6803F072
:104C6C000103002B40D07B685B68012B07D1474BBD
:104C7C001B6803F40033002B15D101237FE07B6804
:104C8C005B68022B07D1414B1B6803F00073002BB0
:104C9C0009D1012373E03D4B1B6803F00203002B89
:104CAC0001D101236BE0394B5B6823F003027B6875
:104CBC005B68364913434B60FDF7A6FDF8600AE0CC
:104CCC00FDF7A2FD0246FB68D31A41F288329342EB
:104CDC0001D9032353E02D4B5B6803F00C027B6876
:104CEC005B689B009A42EBD1274B1B6803F00703D0
:104CFC003A689A4210D2244B1B6823F007022249CF
:104D0C003B6813430B60204B1B6803F007033A68A6
:104D1C009A4201D0012332E07B681B6803F0040344
:104D2C00002B08D0194B5B6823F4E0627B68DB68CE
:104D3C00164913434B607B681B6803F00803002B78
:104D4C0009D0124B5B6823F460527B681B69DB0053
:104D5C000E4913434B6000F021F802460B4B5B6885
:104D6C001B0903F00F030A49CB5C22FA03F3094A2F
:104D7C001360094B1B681846FDF704FD0023184609
:104D8C001037BD4680BD00BF00200240001002401D
:104D9C00945D00080C0000201000002090B48AB034
:104DAC0000AF294B3C1D0FCB84E80F0040F20123D0
:104DBC003B800023FB610023BB6100237B6200234B
:104DCC007B6100233B62214B5B68FB61FB6903F059
:104DDC000C03042B02D0082B03D02BE01C4B3B62A2
:104DEC002BE0FB699B0C03F00F0328333B4413F8B7
:104DFC00243C7B61FB6903F48033002B12D0134BF2
:104E0C005B685B0C03F0010328333B4413F8283C2C
:104E1C00BB617B690E4A03FB02F2BB69B2FBF3F385
:104E2C007B6204E07B690B4A02FB03F37B627B6AC7
:104E3C003B6202E0064B3B6200BF3B6A18462837D8
:104E4C00BD4690BC704700BF845D00080010024056
:104E5C0000127A0000093D0080B400AF024B1B68C1
:104E6C001846BD4680BC70470C00002080B500AFD2
:104E7C00FFF7F2FF0246054B5B681B0A03F00703C2
:104E8C000349CB5C22FA03F3184680BD00100240A4
:104E9C00A45D000880B500AFFFF7DEFF0246054BAE
:104EAC005B68DB0A03F007030349CB5C22FA03F3CC
:104EBC00184680BD00100240A45D000880B485B087
:104ECC0000AF78600A4B1B680A4AA2FB03235B0AFB
:104EDC007A6802FB03F3FB6000BFFB685A1EFA60A2
:104EEC00002BF9D100BF00BF1437BD4680BC704702
:104EFC000C000020D34D621080B582B000AF7860FA
:104F0C007B68002B01D101233FE07B6893F83D3097
:104F1C00DBB2002B06D17B68002283F83C2078683A
:104F2C00FDF74CFA7B68242283F83D207B681B68D4
:104F3C00DA687B681B6822F40052DA60786800F04B
:104F4C0041FE7B681B681A697B681B6822F49042DF
:104F5C001A617B681B685A697B681B6822F02A02FD
:104F6C005A617B681B68DA687B681B6842F40052E4
:104F7C00DA607B6800221A647B68202283F83D206B
:104F8C007B68202283F83E20002318460837BD4654
:104F9C0080BD80B58AB002AFF860B9603B60134643
:104FAC00FB8000237B61FB6893F83D30DBB2202B48
:104FBC007CD1BB68002B02D0FB88002B01D10123D4
:104FCC0075E0FB6893F83C30012B01D102236EE0B5
:104FDC00FB68012283F83C20FB6800221A64FB6802
:104FEC00212283F83D20FDF70FFC7861FB68FA88DD
:104FFC009A84FB68FA88DA84FB689B68B3F5805F57
:10500C0008D1FB681B69002B04D10023FB61BB6832
:10501C00BB6103E0BB68FB610023BB61FB68002242
:10502C0083F83C202AE03B6800937B6900228021B6
:10503C00F86800F0B2FB0346002B01D0032336E0E6
:10504C00FB69002B0BD1BB691B881A46FB681B68DC
:10505C00C2F308025A60BB690233BB6107E0FB690B
:10506C001A78FB681B685A60FB690133FB61FB68AB
:10507C00DB8C9BB2013B9AB2FB68DA84FB68DB8C5D
:10508C009BB2002BCFD13B6800937B69002240215F
:10509C00F86800F082FB0346002B01D0032306E0E6
:1050AC00FB68202283F83D20002300E002231846F1
:1050BC002037BD4680BD000080B586B000AFF860DB
:1050CC00B9601346FB80FB6893F83D30DBB2202BB4
:1050DC0053D1BB68002B02D0FB88002B01D10123DC
:1050EC004CE0FB6893F83C30012B01D1022345E0E6
:1050FC00FB68012283F83C20BA68FB681A62FB68E3
:10510C00FA889A84FB68FA88DA84FB6800221A64AD
:10511C00FB68212283F83D20FB685B6B194A9A627D
:10512C00FB685B6B184ADA62FB685B6B174A1A63A5
:10513C00FB685B6B00225A6307F108037B61FB6819
:10514C00586B7B691968FB681B6804331A46FB882B
:10515C00FDF7F0FCFB681B686FF040021A60FB68FF
:10516C00002283F83C20FB681B685A69FB681B68AB
:10517C0042F080025A61002300E0022318461837DF
:10518C00BD4680BDD95500082B56000813570008A2
:10519C0080B586B000AFF860B9601346FB80FB6841
:1051AC0093F83E30DBB2202B3CD1BB68002B02D0F5
:1051BC00FB88002B01D1012335E0FB6893F83C30D0
:1051CC00012B01D102232EE0FB68012283F83C2045
:1051DC00FB6801221A63FB881A46B968F86800F06C
:1051EC0027FB0346FB75FB7D002B19D1FB681B6B62
:1051FC00012B13D100233B61FB681B681B683B61CF
:10520C00FB681B685B683B613B69FB681B68DA6881
:10521C00FB681B6842F01002DA6001E00123FB75A9
:10522C00FB7D00E0022318461837BD4680BD000008
:10523C0080B58AB000AF78607B681B681B687B62A6
:10524C007B681B68DB683B627B681B685B69FB6186
:10525C000023BB6100237B617B6A03F00F03BB61FE
:10526C00BB69002B0DD17B6A03F02003002B08D007
:10527C003B6A03F02003002B03D0786800F0F8FBA6
:10528C007BE1BB69002B00F0B180FB6903F00103EB
:10529C00002B05D13B6A03F49073002B00F0A68021
:1052AC007B6A03F00103002B0AD03B6A03F4807382
:1052BC00002B05D07B681B6C43F001027B681A64E1
:1052CC007B6A03F00403002B0AD0FB6903F0010393
:1052DC00002B05D07B681B6C43F002027B681A64C0
:1052EC007B6A03F00203002B0AD0FB6903F0010375
:1052FC00002B05D07B681B6C43F004027B681A649E
:10530C007B6A03F00803002B0FD03B6A03F02003E9
:10531C00002B04D1FB6903F00103002B05D07B6843
:10532C001B6C43F008027B681A647B681B6C002BB7
:10533C0000F01E817B6A03F02003002B07D03B6A30
:10534C0003F02003002B02D0786800F091FB7B68FF
:10535C001B685B6903F04003002B14BF012300237F
:10536C00DBB27B617B681B6C03F00803002B02D162
:10537C007B69002B31D0786800F0D3FA7B681B680E
:10538C005B6903F04003002B23D07B681B685A69D0
:10539C007B681B6822F040025A617B689B6B002B78
:1053AC0013D07B689B6B764A5A637B689B6B184661
:1053BC00FDF75AFC0346002B16D07B689B6B5B6B8E
:1053CC007A68926B104698470EE0786800F0F5F812
:1053DC000AE0786800F0F1F806E0786800F0EDF883
:1053EC007B6800221A64C3E000BFC1E07B681B6BC2
:1053FC00012B40F0A1807B6A03F01003002B00F01E
:10540C009B803B6A03F01003002B00F09580002377
:10541C00FB607B681B681B68FB607B681B685B68B8
:10542C00FB60FB687B681B685B6903F04003002B27
:10543C004ED07B689B6B1B685B683B823B8A002B66
:10544C0000F098807B689B8D3A8A9A4280F092801B
:10545C007B683A8ADA857B689B6B9B69202B2BD007
:10546C007B681B68DA687B681B6822F48072DA60E0
:10547C007B681B685A697B681B6822F001025A61C1
:10548C007B681B685A697B681B6822F040025A6172
:10549C007B68202283F83E207B6800221A637B689D
:1054AC001B68DA687B681B6822F01002DA607B6884
:1054BC009B6B1846FDF79DFB7B689A8D7B68DB8D9B
:1054CC009BB2D31A9BB219467868FAF7DBFE51E00F
:1054DC007B689A8D7B68DB8D9BB2D31A7B827B6851
:1054EC00DB8D9BB2002B47D07B8A002B44D07B6892
:1054FC001B68DA687B681B6822F49072DA607B6840
:10550C001B685A697B681B6822F001025A617B6830
:10551C00202283F83E207B6800221A637B681B687C
:10552C00DA687B681B6822F01002DA607B8A194605
:10553C007868FAF7A7FE1FE07B6A03F08003002B64
:10554C0008D03B6A03F08003002B03D0786800F08E
:10555C0028FA12E07B6A03F04003002B0DD03B6A63
:10556C0003F04003002B08D0786800F069FA04E0DF
:10557C0000BF02E000BF00E000BF2837BD4680BD81
:10558C008759000880B483B000AF786000BF0C3737
:10559C00BD4680BC704780B483B000AF786000BF5C
:1055AC000C37BD4680BC704780B483B000AF7860C8
:1055BC0000BF0C37BD4680BC704780B483B000AFD1
:1055CC00786000BF0C37BD4680BC704780B584B096
:1055DC0000AF78607B685B6AFB607B681B681B684C
:1055EC0003F02003002B13D1FB680022DA84FB6844
:1055FC001B685A69FB681B6822F080025A61FB68C1
:10560C001B68DA68FB681B6842F04002DA6002E053
:10561C00F868FCF77FFB00BF1037BD4680BD80B536
:10562C0084B000AF78607B685B6AFB60F868FFF75A
:10563C00A9FF00BF1037BD4680BD80B584B000AF58
:10564C0078607B685B6AFB607B681B681B6803F097
:10565C002003002B2AD1FB680022DA85FB681B682B
:10566C00DA68FB681B6822F48072DA60FB681B68DE
:10567C005A69FB681B6822F001025A61FB681B68BF
:10568C005A69FB681B6822F040025A61FB682022B1
:10569C0083F83E20FB681B6B012B07D1FB681B6852
:1056AC00DA68FB681B6822F01002DA60FB681B6B7F
:1056BC00012B06D1FB689B8D1946F868FAF7E2FDC1
:1056CC0002E0F868FFF767FF00BF1037BD4680BDEA
:1056DC0080B584B000AF78607B685B6AFB60FB6868
:1056EC001B6B012B08D1FB689B8D5B089BB2194689
:1056FC00F868FAF7C7FD02E0F868FFF755FF00BF3E
:10570C001037BD4680BD80B584B000AF78600023F3
:10571C00FB607B685B6ABB60BB681B685B6903F002
:10572C008003002B14BF01230023DBB2FB60BB689A
:10573C0093F83D30DBB2212B08D1FB68002B05D050
:10574C00BB680022DA84B86800F0D6F8BB681B6826
:10575C005B6903F04003002B14BF01230023DBB271
:10576C00FB60BB6893F83E30DBB2222B08D1FB68A0
:10577C00002B05D0BB680022DA85B86800F0D1F8A0
:10578C00BB681B6C43F01002BB681A64B868FFF767
:10579C0014FF00BF1037BD4680BD80B584B000AF8C
:1057AC00F860B9603B601346FB712CE0BB69B3F148
:1057BC00FF3F28D0BB69002B07D0FDF725F8024628
:1057CC003B68D31ABA699A421DD2FB681B68DA6827
:1057DC00FB681B6822F4D072DA60FB681B685A699C
:1057EC00FB681B6822F001025A61FB68202283F8D7
:1057FC003D20FB68202283F83E20FB68002283F8C2
:10580C003C2003230FE0FB681B681A68BB6813403D
:10581C00BA689A420CBF01230023DBB21A46FB790B
:10582C009A42C3D0002318461037BD4680BD0000F5
:10583C0080B586B000AFF860B9601346FB80BA68DB
:10584C00FB689A62FB68FA889A85FB6800221A64E6
:10585C00FB68222283F83E20FB689B6B234A9A62EA
:10586C00FB689B6B224ADA62FB689B6B214A1A63CA
:10587C00FB689B6B00225A6307F108037B61FB6892
:10588C00986BFB681B68043319467B691A68FB88A4
:10589C00FDF750F900233B61FB681B681B683B61FB
:1058AC00FB681B685B683B613B69FB68002283F803
:1058BC003C20FB681B68DA68FB681B6842F480724A
:1058CC00DA60FB681B685A69FB681B6842F00102CE
:1058DC005A61FB681B685A69FB681B6842F04002FE
:1058EC005A61002318461837BD4680BD475600083C
:1058FC00DD5600081357000880B483B000AF786001
:10590C007B681B68DA687B681B6822F0C002DA606F
:10591C007B68202283F83D2000BF0C37BD4680BC3D
:10592C00704780B483B000AF78607B681B68DA681E
:10593C007B681B6822F49072DA607B681B685A697A
:10594C007B681B6822F001025A617B681B6B012B80
:10595C0007D17B681B68DA687B681B6822F0100231
:10596C00DA607B68202283F83E207B6800221A6371
:10597C0000BF0C37BD4680BC704780B584B000AF0B
:10598C0078607B685B6AFB60FB680022DA85FB68E9
:10599C000022DA84F868FFF710FE00BF1037BD460E
:1059AC0080BD80B485B000AF78607B6893F83D30E3
:1059BC00DBB2212B3ED17B689B68B3F5805F14D1A1
:1059CC007B681B69002B10D17B681B6AFB60FB6832
:1059DC001B881A467B681B68C2F308025A607B68F6
:1059EC001B6A9A1C7B681A6208E07B681B6A591C4C
:1059FC007A6811621A787B681B685A607B68DB8C4A
:105A0C009BB2013B9BB27A681946D184002B0FD113
:105A1C007B681B68DA687B681B6822F08002DA609E
:105A2C007B681B68DA687B681B6842F04002DA60AE
:105A3C00002300E0022318461437BD4680BC704793
:105A4C0080B582B000AF78607B681B68DA687B68D1
:105A5C001B6822F04002DA607B68202283F83D202C
:105A6C007868FCF757F9002318460837BD4680BD07
:105A7C0080B586B000AF78607B6893F83E30DBB2BF
:105A8C00222B40F099807B689B68B3F5805F17D11F
:105A9C007B681B69002B13D100237B617B689B6A9D
:105AAC003B617B681B685B689BB2C3F308039AB2CB
:105ABC003B691A807B689B6A9A1C7B689A6226E019
:105ACC007B689B6A7B6100233B617B689B68B3F5B9
